:100000000C9463000C948B000C948B000C948B006C
:100010000C948B000C948B000C948B000C948B0034
:100020000C948B000C948B000C948B000C948B0024
:100030000C948B000C948B000C948B000C948B0014
:100040000C9487030C948B000C9455030C942F0391
:100050000C948B000C948B000C948B000C948B00F4
:100060000C948B000C948B000000000024002700EF
:100070002A0000000000250028002B0000000008D6
:10008000000201000003040700000000000000005F
:1000900000000000230026002900040404040404D6
:1000A0000404020202020202030303030303010227
:1000B00004081020408001020408102001020408F6
:1000C0001020D103900611241FBECFEFD8E0DEBF71
:1000D000CDBF11E0A0E0B1E0E2E6F4E102C005909E
:1000E0000D92A033B107D9F721E0A0E3B1E001C040
:1000F0001D92A73FB207E1F710E0C2E6D0E004C0CE
:100100002197FE010E942308C136D107C9F70E943A
:1001100045040C94240A0C940000AF92BF92CF9235
:10012000DF92EF92FF920F931F93CF93DF936C01B7
:100130007B018B01040F151FEB015E01AE18BF0898
:10014000C017D10759F06991D601ED91FC9101904A
:10015000F081E02DC6010995892B79F7C501DF9162
:10016000CF911F910F91FF90EF90DF90CF90BF90B4
:10017000AF900895FC01538D448D252F30E0842FDE
:1001800090E0821B930B541710F0CF9608950197BF
:100190000895FC01918D828D981761F0A28DAE0FAC
:1001A000BF2FB11D5D968C91928D9F5F9F73928F33
:1001B00090E008958FEF9FEF0895FC01918D828D5F
:1001C000981731F0828DE80FF11D858D90E008952C
:1001D0008FEF9FEF0895FC01918D228D892F90E084
:1001E000805C9F4F821B91098F739927089580E54A
:1001F00091E00E94EB0021E0892B09F420E0822F9E
:10020000089580E090E0892B29F00E94F700811189
:100210000C9400000895FC01A48DA80FB92FB11D06
:10022000A35ABF4F2C91848D90E001968F7399272C
:10023000848FA689B7892C93A089B1898C9183700A
:1002400080648C93938D848D981306C00288F38903
:10025000E02D80818F7D80830895EF92FF920F9330
:100260001F93CF93DF93EC0181E0888F9B8D8C8D62
:1002700098131AC0E889F989808185FF15C09FB756
:10028000F894EE89FF896083E889F9898081837019
:10029000806480839FBF81E090E0DF91CF911F91C8
:1002A0000F91FF90EF900895F62E0B8D10E00F5FE9
:1002B0001F4F0F731127E02E8C8D8E110CC00FB6BF
:1002C00007FCFACFE889F989808185FFF5CFCE0157
:1002D0000E940B01F1CFEB8DEC0FFD2FF11DE35AC6
:1002E000FF4FF0829FB7F8940B8FEA89FB898081DA
:1002F0008062CFCFCF93DF93EC01888D8823B9F054
:10030000AA89BB89E889F9898C9185FD03C0808120
:1003100086FD0DC00FB607FCF7CF8C9185FFF2CF9D
:10032000808185FFEDCFCE010E940B01E9CFDF91E7
:10033000CF91089590E0FC01E458FF4F2491FC0117
:10034000E255FF4F3491FC01E656FF4FE491EE2356
:10035000C9F0222339F0233001F1A8F4213019F13A
:10036000223029F1F0E0EE0FFF1FEE58FF4FA5916C
:10037000B4918FB7F894EC91611126C030953E236B
:100380003C938FBF08952730A9F02830C9F024305E
:1003900049F7809180008F7D03C0809180008F7726
:1003A00080938000DFCF84B58F7784BDDBCF84B5A9
:1003B0008F7DFBCF8091B0008F778093B000D2CF3C
:1003C0008091B0008F7DF9CF3E2BDACFCF93DF93B2
:1003D00090E0FC01E255FF4F249186569F4FFC01AF
:1003E00084918823D1F090E0880F991FFC01E8598F
:1003F000FF4FA591B491FC01EE58FF4FC591D491E8
:1004000061110EC09FB7F8948C91E22FE0958E2376
:100410008C932881E223E8839FBFDF91CF910895D9
:100420008FB7F894EC91E22BEC938FBFF6CF3FB7E8
:10043000F8948091350190913601A0913701B091E7
:10044000380126B5A89B05C02F3F19F00196A11DC4
:10045000B11D3FBFBA2FA92F982F8827BC01CD010E
:10046000620F711D811D911D42E0660F771F881F6D
:10047000991F4A95D1F708958F929F92AF92BF929C
:10048000CF92DF92EF92FF926B017C010E941702E4
:100490004B015C01C114D104E104F104B9F00E94E4
:1004A0001702681979098A099B09683E734081051A
:1004B000910580F321E0C21AD108E108F10888EE25
:1004C000880E83E0981EA11CB11CE4CFFF90EF9032
:1004D000DF90CF90BF90AF909F908F900895FC01D8
:1004E00001900020E9F73197AF01481B590BBC017F
:1004F00080E591E00C948D008F929F92AF92BF9215
:10050000CF92DF92EF92FF920F931F93CF93DF93DF
:10051000CDB7DEB7A1970FB6F894DEBF0FBECDBF43
:100520006C01990FEE08FF08F7FE47C06DE280E509
:1005300091E00E942D018C0122273327A9012C195B
:100540003D094E095F0919A2CE0181967C019AE00E
:10055000892E912CA12CB12CCA01B901A5019401BD
:100560000E94CB07605DF70162937F012115310581
:100570004105510589F790E080E0309719F0CF01EF
:100580000E946F02080F191F88E191E00E946F021C
:10059000800F911FA1960FB6F894DEBF0FBECDBF9E
:1005A000DF91CF911F910F91FF90EF90DF90CF904F
:1005B000BF90AF909F908F900895A701960119A2C8
:1005C0008E010F5D1F4F8AE0C82ED12CE12CF12C3B
:1005D000CA01B901A70196010E94CB07605DF8012D
:1005E00062938F01211531054105510589F7309737
:1005F00029F0CF010E946F028C01C6CF10E000E00D
:10060000C3CFCF93DF93EC018091ED019091EE0188
:10061000009759F02091EF013091F0012C173D0720
:1006200020F081E0DF91CF910895BE016F5F7F4F91
:100630000E944E09009789F09093EE018093ED019E
:10064000D093F001C093EF012091F1013091F201BC
:10065000232B39F7FC011082E4CF80E0E3CF1F9217
:100660000F920FB60F9211242F933F934F935F93E6
:100670006F937F938F939F93AF93BF93EF93FF936A
:1006800080E591E00E940B01FF91EF91BF91AF9146
:100690009F918F917F916F915F914F913F912F919A
:1006A0000F900FBE0F901F9018951F920F920FB6CC
:1006B0000F9211242F938F939F93EF93FF93E091C9
:1006C0006001F09161018081E0916601F091670124
:1006D00082FD1BC09081809169018F5F8F73209193
:1006E0006A01821741F0E0916901F0E0E05BFE4FA2
:1006F000958F80936901FF91EF919F918F912F9139
:100700000F900FBE0F901F9018958081F4CF1F920D
:100710000F920FB60F9211242F933F938F939F93B5
:10072000AF93BF938091310190913201A091330139
:10073000B09134013091300123E0230F2D3758F56B
:100740000196A11DB11D209330018093310190933A
:100750003201A0933301B09334018091350190911F
:100760003601A0913701B09138010196A11DB11D4C
:100770008093350190933601A0933701B0933801EF
:10078000BF91AF919F918F913F912F910F900FBE8D
:100790000F901F90189526E8230F0296A11DB11DFA
:1007A000D2CF109253011092520188EE93E0A0E054
:1007B000B0E08093540190935501A0935601B093FB
:1007C00057018AE091E0909351018093500185ECAC
:1007D00090E090935D0180935C0184EC90E09093B5
:1007E0005F0180935E0180EC90E0909361018093C3
:1007F000600181EC90E0909363018093620182EC50
:1008000090E0909365018093640186EC90E0909372
:100810006701809366011092690110926A0110923B
:100820006B0110926C011092EE011092ED0110928A
:10083000F0011092EF011092F2011092F10190E09C
:1008400080E00E9401032091ED013091EE018111C1
:1008500013C02115310519F0C9010E94C508109275
:10086000EE011092ED011092F2011092F10110923E
:10087000F0011092EF0108951092F2011092F1012F
:100880006AE171E0C9010C941D0ACF93DF9300D097
:10089000CDB7DEB7789484B5826084BD84B58160BD
:1008A00084BD85B5826085BD85B5816085BD80913B
:1008B0006E00816080936E001092810080918100B3
:1008C00082608093810080918100816080938100AB
:1008D000809180008160809380008091B10084606D
:1008E0008093B1008091B00081608093B0008091CE
:1008F0007A00846080937A0080917A00826080938D
:100900007A0080917A00816080937A0080917A00E9
:10091000806880937A001092C100E0916001F091AC
:10092000610182E08083E0915C01F0915D011082C1
:10093000E0915E01F0915F018FEC8083109268017D
:10094000E0916401F091650186E08083E0916201AD
:10095000F0916301808180618083E0916201F09178
:100960006301808188608083E0916201F09163017E
:10097000808180688083E0916201F09163018081D1
:100980008F7D808361E088E00E94E60160E088E07E
:100990000E949A01812C20EC922E29E7A22E24ECB1
:1009A000B22ECC24C394D12CEDEBF0E00491E9EA13
:1009B000F0E08491E82FF0E0EE0FFF1FE057FF4FCB
:1009C000E590F4901092410110924201109243017F
:1009D000109244011092450161E08FE00E94E6010F
:1009E00060E08FE00E949A0162E170E080E090E0B8
:1009F0000E943C0261E08FE00E949A018BE990E046
:100A00000197F1F760E08FE00E94E60180E991E054
:100A1000F7012081202399F40197D1F780923901C1
:100A200090923A01A0923B01B0923C0180923D012C
:100A300090923E01A0923F01B092400162C080E9D5
:100A400091E0F7012081202319F00197D1F7E6CF3B
:100A500088E2382E10E8212C80E991E0F70120810E
:100A6000202319F40197D1F7D9CF0E9417022B0147
:100A70003C0180E991E0F7012081202319F00197E2
:100A8000D1F7CCCF0E94170264197509860997091E
:100A9000693271058105910538F0E22DF0E0E75CDF
:100AA000FE4F8085812B8087169511F4239410E8E2
:100AB0003A943110D1CF61E08FE00E94E60161E00D
:100AC0008FE00E949A016091410170E090E080E027
:100AD0000E9499066093390170933A0180933B011B
:100AE00090933C016091430170E090E080E00E94AF
:100AF000990660933D0170933E0180933F0190936E
:100B0000400160913D0170913E0180913F019091C3
:100B100040010E94ED0770934F0160934E01609178
:100B2000390170913A0180913B0190913C010E9402
:100B3000ED0770934D0160934C01F0E4F0937C005D
:100B400080917A00806480937A0080917A0086FD9B
:100B5000FCCF8091780060917900762F682F072E66
:100B6000000C880B990B0E949B0620E030E040EAC5
:100B70005BE30E94D6060E94ED079B0170934B0138
:100B800060934A01E0904E01F0904F018AE0E81630
:100B9000F1040CF046C0D0924701C09246012230C9
:100BA000310574F461E088E00E949A0168EE73E018
:100BB00080E090E00E943C0260E088E00E949A01A0
:100BC00080E591E00E94EB00892BE9F16AE070E09A
:100BD00080E090E00E943C0280E591E00E94C90024
:100BE00089831A820091F1011091F2010F5F1F4F6A
:100BF000C8010E940103882319F32091ED0130916F
:100C0000EE018091F1019091F201BE016F5F7F4F83
:100C1000820F931F0E941D0A1093F2010093F101AD
:100C2000CFCF9AE1E916F1042CF0D0924901C0929D
:100C30004801B5CF10924701109246011092490128
:100C400010924801ACCF8091F1019091F201892B73
:100C500009F449C06BE171E08091ED019091EE01E2
:100C60000E94140A892B19F5C7010E947C02809109
:100C70004C0190914D010E947C0280914A0190911B
:100C80004B010E947C0280914801909149010E9491
:100C90007C0280914601909147010E947C028EE186
:100CA00091E00E946F0288E191E00E946F0290E063
:100CB00080E00E9401032091ED013091EE0181114D
:100CC00025C02115310519F0C9010E94C5081092EF
:100CD000EE011092ED011092F2011092F1011092CA
:100CE000F0011092EF0164EF71E080E090E00E946B
:100CF0003C02E0E0F0E0EF2B09F456CE0E94F70052
:100D0000882309F451CE0E9400004ECE1092F201C9
:100D10001092F1016AE171E0C9010E941D0AE3CF5E
:100D20008091ED019091EE01009711F00C94C508AF
:100D30000895E89409C097FB3EF4909580957095CE
:100D400061957F4F8F4F9F4F9923A9F0F92F96E917
:100D5000BB279395F695879577956795B795F1118C
:100D6000F8CFFAF4BB0F11F460FF1BC06F5F7F4F29
:100D70008F4F9F4F16C0882311F096E911C077233B
:100D800021F09EE8872F762F05C0662371F096E844
:100D9000862F70E060E02AF09A95660F771F881F13
:100DA000DAF7880F9695879597F908950E94E906D6
:100DB0000C945A070E944C0738F00E94530720F009
:100DC000952311F00C9443070C94490711240C94BB
:100DD0008E070E946B0770F3959FC1F3950F50E04B
:100DE000551F629FF001729FBB27F00DB11D639FDD
:100DF000AA27F00DB11DAA1F649F6627B00DA11D83
:100E0000661F829F2227B00DA11D621F739FB00D28
:100E1000A11D621F839FA00D611D221F749F332798
:100E2000A00D611D231F849F600D211D822F762F31
:100E30006A2F11249F5750409AF0F1F088234AF00E
:100E4000EE0FFF1FBB1F661F771F881F915050407A
:100E5000A9F79E3F510580F00C9443070C948E0730
:100E60005F3FE4F3983ED4F3869577956795B79501
:100E7000F795E7959F5FC1F7FE2B880F911D96951B
:100E8000879597F9089597F99F6780E870E060E08B
:100E900008959FEF80EC089500240A941616170613
:100EA00018060906089500240A941216130614065B
:100EB00005060895092E0394000C11F4882352F0BE
:100EC000BB0F40F4BF2B11F460FF04C06F5F7F4F76
:100ED0008F4F9F4F089557FD9058440F551F59F05D
:100EE0005F3F71F04795880F97FB991F61F09F3F17
:100EF00079F087950895121613061406551FF2CF40
:100F00004695F1DF08C0161617061806991FF1CF8F
:100F100086957105610508940895E894BB276627B6
:100F20007727CB0197F908952F923F924F925F92C6
:100F30006F927F928F929F92AF92BF92CF92DF92E9
:100F4000EF92FF920F931F93CF93DF93CDB7DEB74E
:100F5000CA1BDB0B0FB6F894DEBF0FBECDBF0994E2
:100F60002A88398848885F846E847D848C849B8439
:100F7000AA84B984C884DF80EE80FD800C811B8147
:100F8000AA81B981CE0FD11D0FB6F894DEBF0FBE76
:100F9000CDBFED010895A1E21A2EAA1BBB1BFD01D6
:100FA0000DC0AA1FBB1FEE1FFF1FA217B307E40748
:100FB000F50720F0A21BB30BE40BF50B661F771FA0
:100FC000881F991F1A9469F7609570958095909580
:100FD0009B01AC01BD01CF0108950E94F407689404
:100FE000B1110C948E0708950E94730788F09F57E3
:100FF00098F0B92F9927B751B0F0E1F0660F771F3D
:10100000881F991F1AF0BA95C9F714C0B13091F032
:101010000E948D07B1E008950C948D07672F782FFB
:101020008827B85F39F0B93FCCF3869577956795F7
:10103000B395D9F73EF490958095709561957F4F63
:101040008F4F9F4F0895EE0FFF1F0590F491E02DF5
:1010500009940F931F93CF93DF938230910510F47F
:1010600082E090E0E091F501F091F60130E020E0BF
:10107000B0E0A0E0309799F42115310509F44AC099
:10108000281B390B24303105D8F58A819B816115E5
:10109000710589F1FB0193838283FE0111C04081B8
:1010A00051810281138148175907E0F04817590709
:1010B00099F4109761F012960C93129713961C9363
:1010C0003296CF01DF91CF911F910F910895009338
:1010D000F5011093F601F4CF2115310551F04217B7
:1010E000530738F0A901DB019A01BD01DF01F801C6
:1010F000C1CFEF01F9CF9093F6018093F501CDCFE9
:10110000FE01E20FF31F819391932250310939833D
:101110002883D7CF2091F3013091F401232B41F4A0
:1011200020910201309103013093F4012093F301E7
:1011300020910001309101012115310541F42DB7B5
:101140003EB74091040150910501241B350BE091FD
:10115000F301F091F401E217F307A0F42E1B3F0B0B
:101160002817390778F0AC014E5F5F4F2417350719
:1011700048F04E0F5F1F5093F4014093F3018193A9
:1011800091939FCFF0E0E0E09CCFCF93DF93009767
:10119000E9F0FC01329713821282A091F501B0911F
:1011A000F601ED0130E020E01097A1F420813181BB
:1011B000820F931F2091F3013091F4012817390712
:1011C00009F061C0F093F401E093F301DF91CF9156
:1011D0000895EA01CE17DF07E8F54A815B819E0199
:1011E00041155105B1F7E901FB83EA834991599112
:1011F000C40FD51FEC17FD0761F480819181029621
:10120000840F951FE90199838883828193819B8351
:101210008A83F0E0E0E012968D919C9113970097FD
:10122000B9F52D913C911197CD010296820F931F34
:101230002091F3013091F4012817390739F63097DE
:1012400051F51092F6011092F501B093F401A093BC
:10125000F301BCCFD383C28340815181840F951F9A
:10126000C817D90761F44E5F5F4F88819981480F95
:10127000591F518340838A819B81938382832115E7
:10128000310509F0B0CFF093F601E093F5019ECF60
:10129000FD01DC01C0CF13821282D7CFB0E0A0E005
:1012A000E4E5F9E00C9496078C01009751F4CB012A
:1012B0000E9429088C01C801CDB7DEB7E0E10C948B
:1012C000B207FC01E60FF71F9C0122503109E2171B
:1012D000F30708F49DC0D901CD91DC911197C61791
:1012E000D70798F0C530D10530F3CE0104978617A3
:1012F000970708F3C61BD70B2297C193D1936D9321
:101300007C93CF010E94C508D6CF5B01AC1ABD0A01
:101310004C018C0E9D1EA091F501B091F601512C4F
:10132000412CF12CE12C109731F58091F301909133
:10133000F4018815990509F05CC04616570608F0B7
:1013400058C08091000190910101009741F48DB740
:101350009EB74091040150910501841B950BE8173D
:10136000F90708F055C0F093F401E093F301F90197
:1013700071836083A0CF8D919C91119712966C9090
:10138000129713967C901397A815B90559F56C011F
:1013900042E0C40ED11CCA14DB0420F1AC014A198E
:1013A0005B09DA011296159780F06282738251838D
:1013B0004083D9016D937C93E114F10471F0D7015E
:1013C0001396FC93EE93129776CF22968C0F9D1F67
:1013D000F90191838083F301EFCFF093F601E0935D
:1013E000F50169CF4816590608F42C017D01D30197
:1013F0009ACFCB010E9429087C01009749F0AE01E9
:10140000B8010E940B0AC8010E94C508870153CF8A
:1014100010E000E050CFFB01DC0102C001900D9212
:1014200041505040D8F70895FB01DC018D910190A7
:1014300080190110D9F3990B0895FB01DC0101908B
:101440000D920020E1F7089510E0C2E6D0E004C05C
:10145000FE010E9423082196C336D107C9F7F894EC
:02146000FFCFBC
:101462000000F7018000000000002D018D00BA008D
:101472007A01EB00C900DD000D0A006F6E002F2F0C
:101482002F2F2F2F2F2F2F2F2F2F2F2F2F2F0000C8
:107E0000112484B714BE81FFF0D085E080938100F7
:107E100082E08093C00088E18093C10086E0809377
:107E2000C20080E18093C4008EE0C9D0259A86E02C
:107E300020E33CEF91E0309385002093840096BBD3
:107E4000B09BFECF1D9AA8958150A9F7CC24DD24C4
:107E500088248394B5E0AB2EA1E19A2EF3E0BF2EE7
:107E6000A2D0813461F49FD0082FAFD0023811F036
:107E7000013811F484E001C083E08DD089C08234E0
:107E800011F484E103C0853419F485E0A6D080C0E4
:107E9000853579F488D0E82EFF2485D0082F10E0AE
:107EA000102F00270E291F29000F111F8ED06801E7
:107EB0006FC0863521F484E090D080E0DECF843638
:107EC00009F040C070D06FD0082F6DD080E0C81688
:107ED00080E7D80618F4F601B7BEE895C0E0D1E017
:107EE00062D089930C17E1F7F0E0CF16F0E7DF06D8
:107EF00018F0F601B7BEE89568D007B600FCFDCFD4
:107F0000A601A0E0B1E02C9130E011968C91119780
:107F100090E0982F8827822B932B1296FA010C0160
:107F200087BEE89511244E5F5F4FF1E0A038BF0790
:107F300051F7F601A7BEE89507B600FCFDCF97BE46
:107F4000E89526C08437B1F42ED02DD0F82E2BD052
:107F50003CD0F601EF2C8F010F5F1F4F84911BD097
:107F6000EA94F801C1F70894C11CD11CFA94CF0C13
:107F7000D11C0EC0853739F428D08EE10CD085E9AC
:107F80000AD08FE07ACF813511F488E018D01DD067
:107F900080E101D065CF982F8091C00085FFFCCF94
:107FA0009093C60008958091C00087FFFCCF809118
:107FB000C00084FD01C0A8958091C6000895E0E648
:107FC000F0E098E1908380830895EDDF803219F02E
:107FD00088E0F5DFFFCF84E1DECF1F93182FE3DFCA
:107FE0001150E9F7F2DF1F91089580E0E8DFEE27F6
:047FF000FF270994CA
:027FFE00040479
:0400000300007E007B
:00000001FF
